:100000000C9462000C943F040C9418040C94660445
:100010000C9466040C9466040C948A000C948A0078
:100020000C948A000C948A000C948A000C948A0028
:100030000C948A000C948A000C948A000C948A0018
:100040000C94CE030C948A000C949C030C947603BD
:100050000C948A000C948A000C948A000C948A00F8
:100060000C948A000C948A000000000024002700F1
:100070002A0000000000250028002B0000000000DE
:1000800023002600290004040404040404040202DA
:100090000202020203030303030301020408102007
:1000A0004080010204081020010204081020000012
:1000B0000008000201000003040700000000000027
:1000C0000000700411241FBECFEFD8E0DEBFCDBF0B
:1000D00011E0A0E0B1E0E8E5FEE002C005900D927D
:1000E000A034B107D9F722E0A0E4B1E001C01D922D
:1000F000AD38B207E1F710E0C2E6D0E004C02197C6
:10010000FE010E942407C136D107C9F70E94FE04F0
:100110000C942A070C94000096E0899FD0011124CA
:10012000A25EBD4F90967C936E935F9791E09196FF
:100130009C939197E0918B02F0918C0290918A02AE
:10014000992339F0309751F0811108C080913A021B
:100150000994309719F05C968C91FACF0895AF927C
:10016000BF92CF92DF92EF92FF920F931F93CF93A4
:10017000DF936C017B018B01040F151FEB015E0106
:10018000AE18BF08C017D10759F06991D601ED919B
:10019000FC910190F081E02DC6010995892B79F73A
:1001A000C501DF91CF911F910F91FF90EF90DF90EC
:1001B000CF90BF90AF900895FC01538D448D252FB3
:1001C00030E0842F90E0821B930B541710F0CF96F1
:1001D000089501970895FC01918D828D981761F023
:1001E000A28DAE0FBF2FB11D5D968C91928D9F5F3A
:1001F0009F73928F90E008958FEF9FEF0895FC0119
:10020000918D828D981731F0828DE80FF11D858DCB
:1002100090E008958FEF9FEF0895FC01918D228D5E
:10022000892F90E0805C9F4F821B91098F739927E3
:10023000089581E891E00E940D0121E0892B09F4E5
:1002400020E0822F089580E090E0892B29F00E9421
:10025000190181110C9400000895FC01A48DA80FD0
:10026000B92FB11DA35ABF4F2C91848D90E00196F8
:100270008F739927848FA689B7892C93A089B18918
:100280008C91837080648C93938D848D981306C0B9
:100290000288F389E02D80818F7D80830895EF921D
:1002A000FF920F931F93CF93DF93EC0181E0888F30
:1002B0009B8D8C8D98131AC0E889F989808185FF00
:1002C00015C09FB7F894EE89FF896083E889F989A2
:1002D00080818370806480839FBF81E090E0DF91A4
:1002E000CF911F910F91FF90EF900895F62E0B8DF7
:1002F00010E00F5F1F4F0F731127E02E8C8D8E11B2
:100300000CC00FB607FCFACFE889F989808185FF18
:10031000F5CFCE010E942D01F1CFEB8DEC0FFD2F1B
:10032000F11DE35AFF4FF0829FB7F8940B8FEA89D3
:10033000FB8980818062CFCFCF93DF93EC01888DE2
:100340008823B9F0AA89BB89E889F9898C9185FD50
:1003500003C0808186FD0DC00FB607FCF7CF8C91DE
:1003600085FFF2CF808185FFEDCFCE010E942D0168
:10037000E9CFDF91CF910895833081F028F4813067
:1003800099F08230A9F008958730A9F08830C9F03B
:100390008430B1F4809180008F7D03C08091800013
:1003A0008F7780938000089584B58F7784BD0895FA
:1003B00084B58F7DFBCF8091B0008F778093B000A4
:1003C00008958091B0008F7DF9CFCF93DF93282FD0
:1003D00030E0F901E255FF4F8491F901E656FF4FF5
:1003E000D491F901EA57FF4FC491CC23A1F08111B8
:1003F0000E94BC01EC2FF0E0EE0FFF1FE458FF4F0E
:10040000A591B491EC91ED2381E090E009F480E0B6
:10041000DF91CF91089580E090E0FACF862F0C9481
:10042000E5011F93CF93DF93282F30E0F901E255C8
:10043000FF4F8491F901E656FF4FD491F901EA5735
:10044000FF4FC491CC23A9F0162F81110E94BC014B
:10045000EC2FF0E0EE0FFF1FEE58FF4FA591B49187
:100460008FB7F894EC91111108C0D095DE23DC937E
:100470008FBFDF91CF911F910895DE2BF8CF862F8C
:10048000642F0C941102CF93DF9390E0FC01E656A9
:10049000FF4F24918A579F4FFC0184918823C9F014
:1004A00090E0880F991FFC01E859FF4FA591B49186
:1004B000FC01EE58FF4FC591D49161110DC09FB75B
:1004C000F8948C91209582238C938881282328830B
:1004D0009FBFDF91CF910895623051F49FB7F89498
:1004E0003C91822F809583238C93E8812E2BEFCF34
:1004F0008FB7F894EC912E2B2C938FBFEACF862FD9
:10050000642F0C9443023FB7F89480917A01909144
:100510007B01A0917C01B0917D0126B5A89B05C00F
:100520002F3F19F00196A11DB11D3FBFBA2FA92F72
:10053000982F8827BC01CD01620F711D811D911D6F
:1005400042E0660F771F881F991F4A95D1F70895DB
:100550002FB7F894609176017091770180917801BE
:10056000909179012FBF08950F931F93CF93DF933D
:10057000C82FD62F86E0C89FF0011124E25EFD4F00
:1005800011A2878D90A181309105F1F058F0823051
:100590009105F1F1039709F440C0DF91CF911F91CC
:1005A0000F9108956623C9F361E070E08C2F0E94DB
:1005B0008C000E94A8026093760270937702809369
:1005C000780290937902E9CF0E94A8020091760206
:1005D000109177022091780230917902AB01BC0131
:1005E000401B510B620B730B809188029091890222
:1005F000B0E0A0E084179507A607B70748F462E0CB
:1006000070E08C2FDF91CF911F910F910C948C0093
:1006100063E070E0D111C1CFF4CF70E060E0F1CFC2
:100620000895CF92DF92EF92FF920F931F93CF9393
:10063000DF93809180010E94E501EC010E94A802F5
:100640000091710110917201209173013091740138
:100650006B017C01C01AD10AE20AF30A97018601F4
:100660000B3F11052105310520F010927001109209
:100670006F01609371017093720180937301909385
:100680007401809170019FEF980F983050F4DD272E
:1006900001C0CC0F9A95EAF790916F01C92BC093D6
:1006A0006F018F5F809370018B30B9F480917F016F
:1006B0008F5F8D3208F080E090917E01981749F0AD
:1006C000E82FF0E090916F01EE5BFE4F90838093F6
:1006D0007F011092700110926F01DF91CF911F91F5
:1006E0000F91FF90EF90DF90CF9008951F920F929F
:1006F0000FB60F9211242F933F934F935F936F93F5
:100700007F938F939F93AF93BF93EF93FF9381E872
:1007100091E00E942D01FF91EF91BF91AF919F91C8
:100720008F917F916F915F914F913F912F910F909A
:100730000FBE0F901F9018951F920F920FB60F9239
:1007400011242F938F939F93EF93FF93E091910147
:10075000F09192018081E0919701F091980182FDE2
:100760001BC0908180919A018F5F8F7320919B01B4
:10077000821741F0E0919A01F0E0EF57FE4F958F1C
:1007800080939A01FF91EF919F918F912F910F90FC
:100790000FBE0F901F9018958081F4CF1F920F927B
:1007A0000FB60F9211242F933F938F939F93AF9384
:1007B000BF938091760190917701A0917801B091DB
:1007C00079013091750123E0230F2D3758F50196FB
:1007D000A11DB11D2093750180937601909377013F
:1007E000A0937801B093790180917A0190917B0177
:1007F000A0917C01B0917D010196A11DB11D809356
:100800007A0190937B01A0937C01B0937D01BF910D
:10081000AF919F918F913F912F910F900FBE0F90AD
:100820001F90189526E8230F0296A11DB11DD2CF67
:100830001F920F920FB60F9211242F933F934F9355
:100840005F936F937F938F939F93AF93BF93EF9338
:10085000FF93E0910201F09103010995FF91EF915F
:10086000BF91AF919F918F917F916F915F914F91C8
:100870003F912F910F900FBE0F901F9018951F92D0
:100880000F920FB60F9211242F933F934F935F93C4
:100890006F937F938F939F93AF93BF93EF93FF9348
:1008A000E0910001F09101010995FF91EF91BF9155
:1008B000AF919F918F917F916F915F914F913F91F8
:1008C0002F910F900FBE0F901F9018951F920F92AF
:1008D0000FB60F9211240F900FBE0F901F90189516
:1008E000109284011092830188EE93E0A0E0B0E0C2
:1008F0008093850190938601A0938701B09388012E
:1009000085E291E0909382018093810185EC90E0F3
:1009100090938E0180938D0184EC90E090939001F0
:1009200080938F0180EC90E09093920180939101ED
:1009300081EC90E0909394018093930182EC90E09D
:10094000909396018093950186EC90E090939801A6
:100950008093970110929A0110929B0110929C0132
:1009600010929D01109220021092240210922302F4
:100970001092250287E391E090931F0280931E025C
:10098000EAE3F2E01082148213821582369682E046
:10099000E637F807B9F789E091E0909381028093F8
:1009A000800284E091E0909383028093820284E04D
:1009B0008093840285E0809385028DE091E090939E
:1009C0007F0280937E028AE090E09093870280937A
:1009D000860284EF91E090938902809388021092BE
:1009E0008C0210928B0210927A0210927B0210926B
:1009F0007C0210927D0210928A020895CF93DF93B9
:100A0000CDB7DEB7A3970FB6F894DEBF0FBECDBF4C
:100A1000789484B5826084BD84B5816084BD85B5D9
:100A2000826085BD85B5816085BD80916E008160E5
:100A300080936E001092810080918100826080938B
:100A4000810080918100816080938100809180008D
:100A50008160809380008091B10084608093B100B8
:100A60008091B00081608093B00080917A008460B2
:100A700080937A0080917A00826080937A008091DE
:100A80007A00816080937A0080917A0080688093F8
:100A90007A001092C100E0919101F091920192E0F0
:100AA0009083E0918D01F0918E011082E0918F0191
:100AB000F09190018AE1808310929901E091950173
:100AC000F091960186E08083E0919301F09194018A
:100AD000808180618083E0919301F0919401808115
:100AE00088608083E0919301F09194018081806817
:100AF0008083E0919301F091940180818F7D8083C8
:100B00009093800162E083E00E94430262E082E011
:100B10000E94430210927F0110927E0181E193E0D6
:100B2000909303018093020180916900837F886024
:100B300080936900E99A412C512C32014394CE01F3
:100B400080969BA38AA391E090938A020E94A802B8
:100B500000917A0210917B0220917C0230917D02FB
:100B6000AB01BC01401B510B620B730B80918602E1
:100B700090918702B0E0A0E084179507A607B70719
:100B800008F03AC110E080918402181760F4E091F7
:100B90008002F0918102E10FF11D62E080810E94EC
:100BA00043021F5FF0CF312C80918502381608F088
:100BB00061C0E32CF12CE0918202F0918302EE0DF2
:100BC000FF1D61E080810E944302E0918202F0916A
:100BD0008302EE0DFF1D60E080810E941102D301AF
:100BE000C201032C04C0880F991FAA1FBB1F0A94BF
:100BF000D2F74C016C01C094D094212C80918402D6
:100C0000281608F5022D10E0E0918002F091810293
:100C1000E00FF11F80810E94E5010C5F1F4F000F64
:100C2000111FF801E25EFD4F892B41F48081918113
:100C300088299929918380832394E0CF80819181B1
:100C40008C219D21F7CFE0918202F0918302EE0D7D
:100C5000FF1D61E080810E941102809182029091CB
:100C60008302E80EF91E60E0F70180810E944302D2
:100C700033949ACF0EE112E0F801878D90A1892B71
:100C800031F4148E8FEF9FEF968F858F11A23696D9
:100C900092E0EA35F90789F7D12C80918402D816C1
:100CA00008F053C0C12CED2CF12CEE0CFF1CF70109
:100CB000EA5DFD4F7F0120918502C21608F043C016
:100CC000F701608171810C2C02C0769567950A94BA
:100CD000E2F7D29E900111242C0D311DEEE1F2E0DD
:100CE00080E0458D568D2417350709F4ABC08F5F22
:100CF00036968A30B1F760FF24C0EEE1F2E090E072
:100D000080E0448D411118C0E0917E02F0917F0295
:100D1000E20FF31F408156E0589FF001599FF00DFC
:100D20001124E25EFD4F448F368F258F10A2178E5F
:100D300061E00E94B40205C0019636968A309105A2
:100D400001F7C394B8CFD394A8CFF12CF80181A1B7
:100D50008111F82E0A5F1F4FF2E00A351F07B1F725
:100D60000E94A80260937A0270937B0280937C02B7
:100D700090937D02FF2009F43FC080913F028823B9
:100D8000D9F180913D0290913E020197A9F5109111
:100D90003A02111134C00E9483024B015C0184E6C7
:100DA000C82ED12CE12CF12C0E94830268197909FC
:100DB0008A099B09683E734081059105A8F391E07B
:100DC000C91AD108E108F108E8EE8E0EE3E09E1E94
:100DD000A11CB11CC114D104E104F10429F780E085
:100DE00090E0892B09F4AFCE0E941901882309F401
:100DF000AACE0E940000A7CE10928A02CCCF19A2E0
:100E000021E328A3EAA1FBA101900020E9F7319793
:100E1000AF018AA19BA1481B590BBE01605E7F4FA9
:100E200081E891E00E94AF0042E050E06DE371E0A4
:100E300081E891E00E94AF00612F81E891E00E947B
:100E40004F01A9CF617075CFEE0FFF1F0590F49190
:080E5000E02D0994F894FFCF96
:100E5800100310030C0B0A09080E0F10113738394C
:100E68002643343536585E3132334676302E514F6C
:100E78002F000000004F01AF00DC009C010D01EBCA
:100E880000FF00000000007F023F020E020D0A0072
:107E0000112484B714BE81FFF0D085E080938100F7
:107E100082E08093C00088E18093C10086E0809377
:107E2000C20080E18093C4008EE0C9D0259A86E02C
:107E300020E33CEF91E0309385002093840096BBD3
:107E4000B09BFECF1D9AA8958150A9F7CC24DD24C4
:107E500088248394B5E0AB2EA1E19A2EF3E0BF2EE7
:107E6000A2D0813461F49FD0082FAFD0023811F036
:107E7000013811F484E001C083E08DD089C08234E0
:107E800011F484E103C0853419F485E0A6D080C0E4
:107E9000853579F488D0E82EFF2485D0082F10E0AE
:107EA000102F00270E291F29000F111F8ED06801E7
:107EB0006FC0863521F484E090D080E0DECF843638
:107EC00009F040C070D06FD0082F6DD080E0C81688
:107ED00080E7D80618F4F601B7BEE895C0E0D1E017
:107EE00062D089930C17E1F7F0E0CF16F0E7DF06D8
:107EF00018F0F601B7BEE89568D007B600FCFDCFD4
:107F0000A601A0E0B1E02C9130E011968C91119780
:107F100090E0982F8827822B932B1296FA010C0160
:107F200087BEE89511244E5F5F4FF1E0A038BF0790
:107F300051F7F601A7BEE89507B600FCFDCF97BE46
:107F4000E89526C08437B1F42ED02DD0F82E2BD052
:107F50003CD0F601EF2C8F010F5F1F4F84911BD097
:107F6000EA94F801C1F70894C11CD11CFA94CF0C13
:107F7000D11C0EC0853739F428D08EE10CD085E9AC
:107F80000AD08FE07ACF813511F488E018D01DD067
:107F900080E101D065CF982F8091C00085FFFCCF94
:107FA0009093C60008958091C00087FFFCCF809118
:107FB000C00084FD01C0A8958091C6000895E0E648
:107FC000F0E098E1908380830895EDDF803219F02E
:107FD00088E0F5DFFFCF84E1DECF1F93182FE3DFCA
:107FE0001150E9F7F2DF1F91089580E0E8DFEE27F6
:047FF000FF270994CA
:027FFE00040479
:0400000300007E007B
:00000001FF
