:100000000C9462000C948A000C948A000C948A0070
:100010000C948A000C948A000C948A000C948A0038
:100020000C948A000C948A000C948A000C948A0028
:100030000C948A000C948A000C948A000C948A0018
:100040000C9470030C948A000C943E030C941803D7
:100050000C948A000C948A000C948A000C948A00F8
:100060000C948A000C948A000000000024002700F1
:100070002A0000000000250028002B0000000000DE
:1000800023002600290004040404040404040202DA
:100090000202020203030303030301020408102007
:1000A0004080010204081020010204081020000012
:1000B0000008000201000003040700000000000027
:1000C0000000BA0311241FBECFEFD8E0DEBFCDBFC2
:1000D00011E0A0E0B1E0EAE7FCE002C005900D927B
:1000E000AE33B107D9F722E0AEE3B1E001C01D9213
:1000F000A335B207E1F710E0C2E6D0E004C02197D3
:10010000FE010E943506C136D107C9F70E94480496
:100110000C943B060C94000096E0899FD0011124BA
:10012000AC51BE4F90967C936E935F9791E0919601
:100130009C939197E0915102F0915202909150025C
:10014000992339F0309751F0811108C08091000255
:100150000994309719F05C968C91FACF0895CF925C
:10016000DF92EF92FF920F931F9396E0899FF00129
:100170001124EC51FE4F11A2278D30A12130310501
:1001800051F178F02230310509F451C023303105A6
:1001900009F452C01F910F91FF90EF90DF90CF9024
:1001A00008956623B9F361E070E00E948C002FB7D8
:1001B000F8948091430190914401A0914501B09140
:1001C00046012FBF80933C0290933D02A0933E02D4
:1001D000B0933F02DFCF9FB7F894C0904301D09017
:1001E0004401E0904501F09046019FBF00913C0220
:1001F00010913D0220913E0230913F02C01AD10A77
:10020000E20AF30A00914E0210914F0230E020E022
:100210000C151D052E053F0550F462E070E01F919E
:100220000F91FF90EF90DF90CF900C948C006111B4
:10023000B1CF63E070E0F3CF70E060E0F0CFAF9259
:10024000BF92CF92DF92EF92FF920F931F93CF93C3
:10025000DF936C017B018B01040F151FEB015E0125
:10026000AE18BF08C017D10759F06991D601ED91BA
:10027000FC910190F081E02DC6010995892B79F759
:10028000C501DF91CF911F910F91FF90EF90DF900B
:10029000CF90BF90AF900895FC01538D448D252FD2
:1002A00030E0842F90E0821B930B541710F0CF9610
:1002B000089501970895FC01918D828D981761F042
:1002C000A28DAE0FBF2FB11D5D968C91928D9F5F59
:1002D0009F73928F90E008958FEF9FEF0895FC0138
:1002E000918D828D981731F0828DE80FF11D858DEB
:1002F00090E008958FEF9FEF0895FC01918D228D7E
:10030000892F90E0805C9F4F821B91098F73992702
:10031000089587E491E00E947D0121E0892B09F492
:1003200020E0822F089580E090E0892B29F00E9440
:10033000890181110C9400000895FC01A48DA80F7F
:10034000B92FB11DA35ABF4F2C91848D90E0019617
:100350008F739927848FA689B7892C93A089B18937
:100360008C91837080648C93938D848D981306C0D8
:100370000288F389E02D80818F7D80830895EF923C
:10038000FF920F931F93CF93DF93EC0181E0888F4F
:100390009B8D8C8D98131AC0E889F989808185FF1F
:1003A00015C09FB7F894EE89FF896083E889F989C1
:1003B00080818370806480839FBF81E090E0DF91C3
:1003C000CF911F910F91FF90EF900895F62E0B8D16
:1003D00010E00F5F1F4F0F731127E02E8C8D8E11D1
:1003E0000CC00FB607FCFACFE889F989808185FF38
:1003F000F5CFCE010E949D01F1CFEB8DEC0FFD2FCB
:10040000F11DE35AFF4FF0829FB7F8940B8FEA89F2
:10041000FB8980818062CFCFCF93DF93EC01888D01
:100420008823B9F0AA89BB89E889F9898C9185FD6F
:1004300003C0808186FD0DC00FB607FCF7CF8C91FD
:1004400085FFF2CF808185FFEDCFCE010E949D0117
:10045000E9CFDF91CF910895833081F028F4813086
:1004600099F08230A9F008958730A9F08830C9F05A
:100470008430B1F4809180008F7D03C08091800032
:100480008F7780938000089584B58F7784BD089519
:1004900084B58F7DFBCF8091B0008F778093B000C3
:1004A00008958091B0008F7DF9CFCF93DF93282FEF
:1004B00030E0F901E255FF4F8491F901E656FF4F14
:1004C000D491F901EA57FF4FC491CC23A1F08111D7
:1004D0000E942C02EC2FF0E0EE0FFF1FE458FF4FBC
:1004E000A591B491EC91ED2381E090E009F480E0D6
:1004F000DF91CF91089580E090E0FACF862F0C94A1
:1005000055021F93CF93DF93282F30E0F901E25576
:10051000FF4F8491F901E656FF4FD491F901EA5754
:10052000FF4FC491CC23A9F0162F81110E942C02F9
:10053000EC2FF0E0EE0FFF1FEE58FF4FA591B491A6
:100540008FB7F894EC91111108C0D095DE23DC939D
:100550008FBFDF91CF911F910895DE2BF8CF862FAB
:10056000642F0C948102CF93DF9390E0FC01E65658
:10057000FF4F24918A579F4FFC0184918823C9F033
:1005800090E0880F991FFC01E859FF4FA591B491A5
:10059000FC01EE58FF4FC591D49161110DC09FB77A
:1005A000F8948C91209582238C938881282328832A
:1005B0009FBFDF91CF910895623051F49FB7F894B7
:1005C0003C91822F809583238C93E8812E2BEFCF53
:1005D0008FB7F894EC912E2B2C938FBFEACF862FF8
:1005E000642F0C94B3023FB7F89480913F0190912F
:1005F0004001A0914101B091420126B5A89B05C0E0
:100600002F3F19F00196A11DB11D3FBFBA2FA92F91
:10061000982F8827BC01CD01620F711D811D911D8E
:1006200042E0660F771F881F991F4A95D1F70895FA
:100630001F920F920FB60F9211242F933F934F9357
:100640005F936F937F938F939F93AF93BF93EF933A
:10065000FF9387E491E00E949D01FF91EF91BF918C
:10066000AF919F918F917F916F915F914F913F914A
:100670002F910F900FBE0F901F9018951F920F9201
:100680000FB60F9211242F938F939F93EF93FF93A5
:10069000E0915701F09158018081E0915D01F09166
:1006A0005E0182FD1BC09081809160018F5F8F731E
:1006B00020916101821741F0E0916001F0E0E95B77
:1006C000FE4F958F80936001FF91EF919F918F91E5
:1006D0002F910F900FBE0F901F9018958081F4CF2F
:1006E0001F920F920FB60F9211242F933F938F9367
:1006F0009F93AF93BF938091430190914401A09148
:100700004501B091460130913E0123E0230F2D3782
:1007100058F50196A11DB11D20933E018093430120
:1007200090934401A0934501B093460180913F010D
:1007300090914001A0914101B09142010196A11D0B
:10074000B11D80933F0190934001A0934101B0936C
:100750004201BF91AF919F918F913F912F910F9047
:100760000FBE0F901F90189526E8230F0296A11D2B
:10077000B11DD2CF10924A011092490188EE93E048
:10078000A0E0B0E080934B0190934C01A0934D0109
:10079000B0934E0186E291E0909348018093470127
:1007A00085EC90E0909354018093530184EC90E0A9
:1007B000909356018093550180EC90E090935801FE
:1007C0008093570181EC90E090935A0180935901F6
:1007D00082EC90E090935C0180935B0186EC90E06A
:1007E00090935E0180935D0110926001109261010F
:1007F00010926201109263011092E6011092EA01D8
:100800001092E9011092EB0188E391E09093E501E9
:100810008093E401E0E0F2E01082148213821582FA
:10082000369682E0EC33F807B9F786E091E09093D2
:1008300047028093460280E091E0909349028093C2
:10084000480284E080934A0286E080934B028AE06B
:1008500091E090934502809344028AE090E0909367
:100860004D0280934C0284EF91E090934F0280936D
:100870004E021092520210925102109240021092B7
:1008800041021092420210924302109250020895C7
:10089000789484B5826084BD84B5816084BD85B55B
:1008A000826085BD85B5816085BD80916E00816067
:1008B00080936E001092810080918100826080930D
:1008C000810080918100816080938100809180000F
:1008D0008160809380008091B10084608093B1003A
:1008E0008091B00081608093B00080917A00846034
:1008F00080937A0080917A00826080937A00809160
:100900007A00816080937A0080917A008068809379
:100910007A001092C100E0915701F091580182E0F5
:100920008083E0915301F09154011082E0915501D0
:10093000F09156018AE1808310925F01E0915B01A2
:10094000F0915C0186E08083E0915901F0915A01B9
:10095000808180618083E0915901F0915A0180810A
:1009600088608083E0915901F0915A01808180680C
:100970008083E0915901F0915A0180818F7D8083BD
:10098000812C912C5401839440E0642E40E0742E1D
:1009900021E0209350028FB7F89440914301509189
:1009A000440160914501709146018FBF80914002E2
:1009B00090914102A0914202B0914302481B590B11
:1009C0006A0B7B0B80914C0290914D02B0E0A0E04D
:1009D00084179507A607B70708F019C1C0E08091F2
:1009E0004A02C81760F4E0914602F0914702EC0F0A
:1009F000F11D62E080810E94B302CF5FF0CF512CE5
:100A000080914B02581608F05FC0052D10E0E09170
:100A10004802F0914902E00FF11F61E080810E94DD
:100A2000B302E0914802F0914902E00FF11F60E04B
:100A300080810E948102D501C401052C04C0880F69
:100A4000991FAA1FBB1F0A94D2F76C017C01E09486
:100A5000F094412C80914A024816F8F4C42DD0E05D
:100A6000E0914602F0914702EC0FFD1F80810E9449
:100A700055022496CC0FDD1FCC51DE4F892B41F45B
:100A8000888199818C299D29998388834394E2CF19
:100A9000888199818E219F21F7CFE0914802F091C2
:100AA0004902E00FF11F61E080810E948102809184
:100AB000480290914902080F191F60E0F8018081F7
:100AC0000E94B30253949CCFC4EED1E0FE01878D07
:100AD00090A1892B31F4148E8FEF9FEF968F858F25
:100AE00011A2369692E0E032F90789F710E0809182
:100AF0004A02181708F053C000E0E12EF12CEE0C6A
:100B0000FF1CF701E451FE4F7F0120914B020217B9
:100B100008F043C0F70160817181002E02C0769514
:100B200067950A94E2F7129F90011124200F311D5E
:100B3000E4EEF1E080E0458D568D2417350709F489
:100B400092C08F5F36968A30B1F760FF24C0E4EE22
:100B5000F1E090E080E0448D411118C0E091440242
:100B6000F0914502E20FF31F408156E0589FF001DB
:100B7000599FF00D1124EC51FE4F448F368F258F75
:100B800010A2178E61E00E94AF0005C00196369654
:100B90008A30910501F70F5FB8CF1F5FA8CF80E0C3
:100BA00099A19111892F269692E0C032D907C1F7F9
:100BB0009FB7F894409143015091440160914501E1
:100BC000709146019FBF4093400250934102609351
:100BD0004202709343028823D1F08091050288235A
:100BE000B1F08091030290910402019781F4609129
:100BF000000261110FC06114710409F4C9CE0E9492
:100C00008901882309F4C4CE0E940000C1CE10924D
:100C10005002F1CF87E491E00E94BF010E94F302ED
:100C20001B012C0184E6C82ED12CE12CF12C0E9452
:100C3000F3026219730984099509683E73408105BE
:100C40009105A8F3E1E0CE1AD108E108F108F8EE29
:100C50002F0EF3E03F1E411C511CC114D104E104CE
:100C6000F10429F7C8CF61708ECFEE0FFF1F0590FA
:0A0C7000F491E02D0994F894FFCFF1
:100C7A000B0A0908070605040302213738392643F7
:100C8A0040343536585E23313233467624302E517D
:100C9A004F2F00000000BF011F014C010C027D0113
:0E0CAA005B016F0100000000EF02AF027E024E
:107E0000112484B714BE81FFF0D085E080938100F7
:107E100082E08093C00088E18093C10086E0809377
:107E2000C20080E18093C4008EE0C9D0259A86E02C
:107E300020E33CEF91E0309385002093840096BBD3
:107E4000B09BFECF1D9AA8958150A9F7CC24DD24C4
:107E500088248394B5E0AB2EA1E19A2EF3E0BF2EE7
:107E6000A2D0813461F49FD0082FAFD0023811F036
:107E7000013811F484E001C083E08DD089C08234E0
:107E800011F484E103C0853419F485E0A6D080C0E4
:107E9000853579F488D0E82EFF2485D0082F10E0AE
:107EA000102F00270E291F29000F111F8ED06801E7
:107EB0006FC0863521F484E090D080E0DECF843638
:107EC00009F040C070D06FD0082F6DD080E0C81688
:107ED00080E7D80618F4F601B7BEE895C0E0D1E017
:107EE00062D089930C17E1F7F0E0CF16F0E7DF06D8
:107EF00018F0F601B7BEE89568D007B600FCFDCFD4
:107F0000A601A0E0B1E02C9130E011968C91119780
:107F100090E0982F8827822B932B1296FA010C0160
:107F200087BEE89511244E5F5F4FF1E0A038BF0790
:107F300051F7F601A7BEE89507B600FCFDCF97BE46
:107F4000E89526C08437B1F42ED02DD0F82E2BD052
:107F50003CD0F601EF2C8F010F5F1F4F84911BD097
:107F6000EA94F801C1F70894C11CD11CFA94CF0C13
:107F7000D11C0EC0853739F428D08EE10CD085E9AC
:107F80000AD08FE07ACF813511F488E018D01DD067
:107F900080E101D065CF982F8091C00085FFFCCF94
:107FA0009093C60008958091C00087FFFCCF809118
:107FB000C00084FD01C0A8958091C6000895E0E648
:107FC000F0E098E1908380830895EDDF803219F02E
:107FD00088E0F5DFFFCF84E1DECF1F93182FE3DFCA
:107FE0001150E9F7F2DF1F91089580E0E8DFEE27F6
:047FF000FF270994CA
:027FFE00040479
:0400000300007E007B
:00000001FF
