:100000000C9462000C948A000C948A000C948A0070
:100010000C948A000C948A000C948A000C948A0038
:100020000C948A000C948A000C948A000C948A0028
:100030000C948A000C948A000C948A000C948A0018
:100040000C944B030C948A000C9419030C94F30247
:100050000C948A000C948A000C948A000C948A00F8
:100060000C948A000C948A000000000024002700F1
:100070002A0000000000250028002B0000000000DE
:1000800023002600290004040404040404040202DA
:100090000202020203030303030301020408102007
:1000A0004080010204081020010204081020000012
:1000B0000008000201000003040700000000000027
:1000C0000000950311241FBECFEFD8E0DEBFCDBFE7
:1000D00011E0A0E0B1E0E4E1FCE002C005900D9287
:1000E000A034B107D9F722E0A0E4B1E001C01D922D
:1000F000A535B207E1F710E0C2E6D0E004C02197D1
:10010000FE010E940206C136D107C9F70E942304EE
:100110000C9408060C94000096E0899FD0011124ED
:10012000AA51BE4F90967C936E935F9791E0919603
:100130009C939197E0915302F09154029091520256
:10014000992339F0309751F0811108C08091020253
:100150000994309719F05C968C91FACF0895CF925C
:10016000DF92EF92FF920F931F9396E0899FF00129
:100170001124EA51FE4F11A2278D30A12130310503
:1001800051F178F02230310509F451C023303105A6
:1001900009F452C01F910F91FF90EF90DF90CF9024
:1001A00008956623B9F361E070E00E948C002FB7D8
:1001B000F8948091450190914601A0914701B0913A
:1001C00048012FBF80933E0290933F02A0934002CC
:1001D000B0934102DFCF9FB7F894C0904501D09013
:1001E0004601E0904701F09048019FBF00913E0218
:1001F00010913F022091400230914102C01AD10A71
:10020000E20AF30A009150021091510230E020E01E
:100210000C151D052E053F0550F462E070E01F919E
:100220000F91FF90EF90DF90CF900C948C006111B4
:10023000B1CF63E070E0F3CF70E060E0F0CFAF9259
:10024000BF92CF92DF92EF92FF920F931F93CF93C3
:10025000DF936C017B018B01040F151FEB015E0125
:10026000AE18BF08C017D10759F06991D601ED91BA
:10027000FC910190F081E02DC6010995892B79F759
:10028000C501DF91CF911F910F91FF90EF90DF900B
:10029000CF90BF90AF900895FC01538D448D252FD2
:1002A00030E0842F90E0821B930B541710F0CF9610
:1002B000089501970895FC01918D828D981761F042
:1002C000A28DAE0FBF2FB11D5D968C91928D9F5F59
:1002D0009F73928F90E008958FEF9FEF0895FC0138
:1002E000918D828D981731F0828DE80FF11D858DEB
:1002F00090E008958FEF9FEF0895FC01918D228D7E
:10030000892F90E0805C9F4F821B91098F73992702
:10031000089589E491E00E947D0121E0892B09F490
:1003200020E0822F089580E090E0892B29F00E9440
:10033000890181110C9400000895FC01A48DA80F7F
:10034000B92FB11DA35ABF4F2C91848D90E0019617
:100350008F739927848FA689B7892C93A089B18937
:100360008C91837080648C93938D848D981306C0D8
:100370000288F389E02D80818F7D80830895EF923C
:10038000FF920F931F93CF93DF93EC0181E0888F4F
:100390009B8D8C8D98131AC0E889F989808185FF1F
:1003A00015C09FB7F894EE89FF896083E889F989C1
:1003B00080818370806480839FBF81E090E0DF91C3
:1003C000CF911F910F91FF90EF900895F62E0B8D16
:1003D00010E00F5F1F4F0F731127E02E8C8D8E11D1
:1003E0000CC00FB607FCFACFE889F989808185FF38
:1003F000F5CFCE010E949D01F1CFEB8DEC0FFD2FCB
:10040000F11DE35AFF4FF0829FB7F8940B8FEA89F2
:10041000FB8980818062CFCFCF93DF93EC01888D01
:100420008823B9F0AA89BB89E889F9898C9185FD6F
:1004300003C0808186FD0DC00FB607FCF7CF8C91FD
:1004400085FFF2CF808185FFEDCFCE010E949D0117
:10045000E9CFDF91CF910895833081F028F4813086
:1004600099F08230A9F008958730A9F08830C9F05A
:100470008430B1F4809180008F7D03C08091800032
:100480008F7780938000089584B58F7784BD089519
:1004900084B58F7DFBCF8091B0008F778093B000C3
:1004A00008958091B0008F7DF9CFCF93DF93282FEF
:1004B00030E0F901E255FF4F8491F901E656FF4F14
:1004C000D491F901EA57FF4FC491CC23A1F08111D7
:1004D0000E942C02EC2FF0E0EE0FFF1FE458FF4FBC
:1004E000A591B491EC91ED2381E090E009F480E0D6
:1004F000DF91CF91089580E090E0FACF862F0C94A1
:1005000055021F93CF93DF93282F30E0F901E25576
:10051000FF4F8491F901E656FF4FD491F901EA5754
:10052000FF4FC491CC23A9F0162F81110E942C02F9
:10053000EC2FF0E0EE0FFF1FEE58FF4FA591B491A6
:100540008FB7F894EC91111108C0D095DE23DC939D
:100550008FBFDF91CF911F910895DE2BF8CF862FAB
:10056000642F0C948102CF93DF9390E0FC01E65658
:10057000FF4F24918A579F4FFC0184918823C9F033
:1005800090E0880F991FFC01E859FF4FA591B491A5
:10059000FC01EE58FF4FC591D49161110DC09FB77A
:1005A000F8948C91209582238C938881282328832A
:1005B0009FBFDF91CF910895623051F49FB7F894B7
:1005C0003C91822F809583238C93E8812E2BEFCF53
:1005D0008FB7F894EC912E2B2C938FBFEACF862FF8
:1005E000642F0C94B3021F920F920FB60F92112436
:1005F0002F933F934F935F936F937F938F939F932B
:10060000AF93BF93EF93FF9389E491E00E949D0124
:10061000FF91EF91BF91AF919F918F917F916F91DA
:100620005F914F913F912F910F900FBE0F901F90B0
:1006300018951F920F920FB60F9211242F938F933C
:100640009F93EF93FF93E0915901F0915A018081BC
:10065000E0915F01F091600182FD1BC0908180916B
:1006600062018F5F8F7320916301821741F0E091E7
:100670006201F0E0E75BFE4F958F80936201FF918E
:10068000EF919F918F912F910F900FBE0F901F9020
:1006900018958081F4CF1F920F920FB60F921124FC
:1006A0002F933F938F939F93AF93BF938091450177
:1006B00090914601A0914701B091480130914401C9
:1006C00023E0230F2D3758F50196A11DB11D20936E
:1006D00044018093450190934601A0934701B09354
:1006E00048018091400190914101A0914201B09157
:1006F00043010196A11DB11D8093400190934101DA
:10070000A0934201B0934301BF91AF919F918F910C
:100710003F912F910F900FBE0F901F90189526E8D4
:10072000230F0296A11DB11DD2CF10924C01109241
:100730004B0188EE93E0A0E0B0E080934D019093F0
:100740004E01A0934F01B093500187E291E0909346
:100750004A018093490185EC90E090935601809383
:10076000550184EC90E0909358018093570180EC00
:1007700090E090935A018093590181EC90E090931E
:100780005C0180935B0182EC90E090935E0180932A
:100790005D0186EC90E09093600180935F01109280
:1007A000620110926301109264011092650110922F
:1007B000E8011092EC011092EB011092ED0189E337
:1007C00091E09093E7018093E601E2E0F2E010828D
:1007D000148213821582369682E0EE33F807B9F759
:1007E00087E091E0909349028093480281E091E094
:1007F00090934B0280934A0284E080934C0286E0FF
:1008000080934D028BE091E09093470280934602E3
:100810008AE090E090934F0280934E0284EF91E043
:1008200090935102809350021092540210925302FE
:10083000109242021092430210924402109245021A
:10084000109252020895789484B5826084BD84B574
:10085000816084BD85B5826085BD85B5816085BDBB
:1008600080916E00816080936E0010928100809173
:1008700081008260809381008091810081608093FB
:100880008100809180008160809380008091B10020
:1008900084608093B1008091B00081608093B0004B
:1008A00080917A00846080937A0080917A008260DF
:1008B00080937A0080917A00816080937A008091A1
:1008C0007A00806880937A001092C100E09159010B
:1008D000F0915A0182E08083E0915501F091560138
:1008E0001082E0915701F09158018AE180831092C3
:1008F0006101E0915D01F0915E0186E08083E0910D
:100900005B01F0915C01808180618083E0915B01FB
:10091000F0915C01808188608083E0915B01F091BF
:100920005C01808180688083E0915B01F0915C01D3
:1009300080818F7D808361E08CE00E94B3026091B2
:1009400000018CE00E948102812C912C540183943F
:1009500022242A94322C50E0652E50E0752E51E06E
:10096000509352028FB7F89440914501509146013F
:1009700060914701709148018FBF80914202909130
:100980004302A0914402B0914502481B590B6A0BE7
:100990007B0B80914E0290914F02B0E0A0E0841753
:1009A0009507A607B70708F017C1C0E080914C0271
:1009B000C81760F4E0914802F0914902EC0FF11D74
:1009C00062E080810E94B302CF5FF0CF512C809112
:1009D0004D02581608F05FC0052D10E0E0914A0264
:1009E000F0914B02E00FF11F61E080810E94B302A1
:1009F000E0914A02F0914B02E00FF11F60E080812C
:100A00000E948102D501C401052C04C0880F991FE2
:100A1000AA1FBB1F0A94D2F76C017C01E094F094EA
:100A2000412C80914C024816F8F4C42DD0E0E0919E
:100A30004802F0914902EC0FFD1F80810E9455028F
:100A40002496CC0FDD1FCA51DE4F892B41F48881DB
:100A500099818C299D29998388834394E2CF888149
:100A600099818E219F21F7CFE0914A02F0914B02AC
:100A7000E00FF11F61E080810E94810280914A02B3
:100A800090914B02080F191F60E0F80180810E94CD
:100A9000B30253949CCFC6EED1E0FE01878D90A1A6
:100AA000892B21F4148E368E258E11A2369652E0B3
:100AB000E232F50799F710E080914C02181708F020
:100AC00053C000E0E12EF12CEE0CFF1CC701825157
:100AD0009E4F7C0120914D02021708F043C0F701A0
:100AE00060817181002E02C0769567950A94E2F7C5
:100AF000129F90011124200F311DE6EEF1E080E0FD
:100B0000458D568D2417350709F47AC08F5F3696C8
:100B10008A30B1F760FF24C0E6EEF1E090E080E0BB
:100B2000448D411118C0E0914602F0914702E20F56
:100B3000F31F408156E0589FF001599FF00D11249A
:100B4000EA51FE4F448F368F258F10A2178E61E039
:100B50000E94AF0005C0019636968A30910501F7D4
:100B60000F5FB8CF1F5FA8CF80E099A19111892FA7
:100B7000269692E0C232D907C1F79FB7F894409108
:100B800045015091460160914701709148019FBF16
:100B90004093420250934302609344027093450293
:100BA0008823D1F0809107028823B1F0809105025B
:100BB00090910602019781F46091020261110FC0C9
:100BC0006114710409F4CBCE0E948901882309F4D1
:100BD000C6CE0E940000C3CE10925202F1CF663200
:100BE00051F460910001E1E06E27609300018CE018
:100BF0000E948102E5CF89E491E00E94BF01E0CF2D
:100C00006170A6CFEE0FFF1F0590F491E02D0994BF
:040C1000F894FFCF86
:100C1400010B0A090807060504030221373839269F
:100C24004340343536585E23313233467624302EF1
:100C3400514F2F00000000BF011F014C010C027D29
:100C4400015B016F0100000000EF02AF027E0200B1
:00000001FF
