:100000000C9430010C9441060C941A060C9468066A
:100010000C9468060C9468060C9458010C945801D2
:100020000C9458010C9458010C9458010C945801EC
:100030000C9458010C9458010C9458010C945801DC
:100040000C94D0050C9458010C949E050C947805E2
:100050000C9458010C9458010C9458010C945801BC
:100060000C9458010C945801000000002400270053
:100070002A0000000008000201000003040700003D
:100080000000000000000000000000000000000070
:100090000000000960000000000000713100000055
:1000A0007A7361773200006378646534330000202E
:1000B000766674723500006E6268677936000000FB
:1000C0006D6A75373800002C6B696F303900002E6F
:1000D0002F6C3B702D00000027005B3D00000000EE
:1000E0000D5D005C00000000000000007F0000319A
:1000F000003437000000302E323536381B00002B1C
:10010000332D2A390000000000000000000000002C
:100110000000000000000000000000097E00000058
:1001200000000051210000005A5341574000004395
:100130005844452423000020564654522500004EC2
:10014000424847595E0000004D4A55262A00003CAF
:100150004B494F292800003E3F4C3A505F000000B9
:1001600022007B2B000000000D7D007C00000000C1
:10017000000000007F000031003437000000302E06
:10018000323536381B00002B332D2A390000000091
:10019000000000000000000000000000000000005F
:1001A000000000000000000000000000000000004F
:1001B000000000000000000000000000000000003F
:1001C000000000000000000000000000000000002F
:1001D000000000000000000000000000000000001F
:1001E000000000000000000000000000000000000F
:1001F00000000000000000000000000000000000FF
:1002000000000000000000000000000000000000EE
:1002100000000000000000000000000000000000DE
:10022000000000230026002900000000002500280F
:10023000002B000404040404040404020202020269
:10024000020303030303030102040810204080019A
:10025000020408102001020408102000E006C90A68
:1002600011241FBECFEFD8E0DEBFCDBF11E0A0E06C
:10027000B1E0E0E4F6E102C005900D92A638B107C6
:10028000D9F723E0A6E8B1E001C01D92AB33B20775
:10029000E1F711E0CFE2D1E004C02197FE010E9416
:1002A0000D0BCE32D107C9F70E94DA070C94130B5D
:1002B0000C94000096E0899FD0011124A453BD4FF7
:1002C00090967C936E935F9791E091969C93919713
:1002D000E0913903F0913A0390913803992339F072
:1002E000309751F0811108C08091E802099430974D
:1002F00019F05C968C91FACF0895AF92BF92CF928D
:10030000DF92EF92FF920F931F93CF93DF936C01D5
:100310007B018B01040F151FEB015E01AE18BF08B6
:10032000C017D10759F06991D601ED91FC91019068
:10033000F081E02DC6010995892B79F7C501DF9180
:10034000CF911F910F91FF90EF90DF90CF90BF90D2
:10035000AF90089542E050E063E871E080E192E000
:100360000C947D01FC01538D448D252F30E0842FAA
:1003700090E0821B930B541710F0CF9608950197CD
:100380000895FC01918D828D981761F0A28DAE0FBA
:10039000BF2FB11D5D968C91928D9F5F9F73928F41
:1003A00090E008958FEF9FEF0895FC01918D828D6D
:1003B000981731F0828DE80FF11D858D90E008953A
:1003C0008FEF9FEF0895FC01918D228D892F90E092
:1003D000805C9F4F821B91098F739927089580E15C
:1003E00092E00E94E30121E0892B09F420E0822FB2
:1003F000089580E090E0892B29F00E94EF0181119F
:100400000C9400000895FC01A48DA80FB92FB11D14
:10041000A35ABF4F2C91848D90E001968F7399273A
:10042000848FA689B7892C93A089B1898C91837018
:1004300080648C93938D848D981306C00288F38911
:10044000E02D80818F7D80830895EF92FF920F933E
:100450001F93CF93DF93EC0181E0888F9B8D8C8D70
:1004600098131AC0E889F989808185FF15C09FB764
:10047000F894EE89FF896083E889F9898081837027
:10048000806480839FBF81E090E0DF91CF911F91D6
:100490000F91FF90EF900895F62E0B8D10E00F5FF7
:1004A0001F4F0F731127E02E8C8D8E110CC00FB6CD
:1004B00007FCFACFE889F989808185FFF5CFCE0165
:1004C0000E940302F1CFEB8DEC0FFD2FF11DE35ADB
:1004D000FF4FF0829FB7F8940B8FEA89FB898081E8
:1004E0008062CFCFCF93DF93EC01888D8823B9F062
:1004F000AA89BB89E889F9898C9185FD03C080812F
:1005000086FD0DC00FB607FCF7CF8C9185FFF2CFAB
:10051000808185FFEDCFCE010E940302E9CFDF91FC
:10052000CF910895833081F028F4813099F08230A2
:10053000A9F008958730A9F08830C9F08430B1F46B
:10054000809180008F7D03C0809180008F778093A1
:100550008000089584B58F7784BD089584B58F7D1C
:10056000FBCF8091B0008F778093B0000895809189
:10057000B0008F7DF9CFCF93DF93282F30E0F901C2
:10058000EE58FF4F8491F901E95BFD4FD491F901D9
:10059000ED5CFD4FC491CC23A1F081110E94920229
:1005A000EC2FF0E0EE0FFF1FE15EFD4FA591B4913F
:1005B000EC91ED2381E090E009F480E0DF91CF91B0
:1005C000089580E090E0FACF862F0C94BB021F9331
:1005D000CF93DF93282F30E0F901EE58FF4F84913D
:1005E000F901E95BFD4FD491F901ED5CFD4FC49138
:1005F000CC23A9F0162F81110E949202EC2FF0E07B
:10060000EE0FFF1FE75DFD4FA591B4918FB7F894F2
:10061000EC91111108C0D095DE23DC938FBFDF91E0
:10062000CF911F910895DE2BF8CF862F642F0C9465
:10063000E702CF93DF9390E0FC01E95BFD4F24914B
:100640008D5C9D4FFC0184918823C9F090E0880F58
:10065000991FFC01E859FF4FA591B491FC01E75D9A
:10066000FD4FC591D49161110DC09FB7F8948C9145
:10067000209582238C938881282328839FBFDF9134
:10068000CF910895623051F49FB7F8943C91822F36
:10069000809583238C93E8812E2BEFCF8FB7F8942E
:1006A000EC912E2B2C938FBFEACF862F642F0C94C6
:1006B00019033FB7F8948091FF0190910002A09137
:1006C0000102B091020226B5A89B05C02F3F19F088
:1006D0000196A11DB11D3FBFBA2FA92F982F8827C2
:1006E000BC01CD01620F711D811D911D42E0660F9D
:1006F000771F881F991F4A95D1F708952FB7F8944F
:100700006091FB017091FC018091FD019091FE01CF
:100710002FBF08950F931F93CF93DF93C82FD62F2A
:1007200086E0C89FF0011124E453FD4F11A2878D8C
:1007300090A181309105F1F058F082309105F1F1EE
:10074000039709F440C0DF91CF911F910F91089555
:100750006623C9F361E070E08C2F0E945A010E9469
:100760007E03609324037093250380932603909364
:100770002703E9CF0E947E030091240310912503F3
:100780002091260330912703AB01BC01401B510B84
:10079000620B730B8091360390913703B0E0A0E0B9
:1007A00084179507A607B70748F462E070E08C2F1E
:1007B000DF91CF911F910F910C945A0163E070E08B
:1007C000D111C1CFF4CF70E060E0F1CF0895CF93A5
:1007D0002091090230910A02B90168577F4FA9019F
:1007E0004F5E5E4F9091F901D901A05FBE4F80919D
:1007F0000702E09108028E1305C09093F90180E092
:10080000CF9108958F5F8D3208F080E0E82FF0E0FF
:10081000E453FE4FE08180930702EE2371F3E03F43
:1008200011F49160E4CFE03E11F49260E0CF90FFCC
:100830000FC0E23119F49B7F9C7FD9CFE93511F4C9
:10084000977FFACFE131C1F791FFF6CF9F7EF4CFCA
:10085000E23111F49460CBCFE93511F49860C7CF41
:10086000E13111F491FD9061C92FCC7F91FF10C04F
:10087000EA54E43310F09C2FBACFF0E0EF5DFE4F66
:1008800080819C2F882309F4B2CFC093F901B8CF9F
:1008900094FF0AC08C91882339F0E83860F7E40FA0
:1008A000F52FF11D8491EDCF9C7031F0E83818F7E9
:1008B000E60FF72FF11DF6CFE838E8F6E20FF32F39
:1008C000F11DF0CFCF92DF92EF92FF920F931F9323
:1008D000CF93DF9380910B020E94BB02EC010E9438
:1008E0007E030091C8011091C9012091CA01309185
:1008F000CB016B017C01C01AD10AE20AF30A97010D
:1009000086010B3F11052105310520F01092C7012A
:100910001092C6016093C8017093C9018093CA0107
:100920009093CB018091C7019FEF980F983050F4BE
:10093000DD2701C0CC0F9A95EAF79091C601C92B2B
:10094000C093C6018F5F8093C7018B30B9F480914B
:1009500008028F5F8D3208F080E0909107029817AF
:1009600049F0E82FF0E09091C601E453FE4F9083E8
:10097000809308021092C7011092C601DF91CF91B7
:100980001F910F91FF90EF90DF90CF9008952091ED
:100990000502309106022817390771F4909103027D
:1009A00080910402981741F0E0910302F0E0EA57C9
:1009B000FE4F808190E008958FEF9FEF0895089596
:1009C000EF92FF920F931F93CF93DF93DC015C961E
:1009D000ED90FC905D97E114F10479F481E090E0F2
:1009E00013969C938E93129790E080E0DF91CF91C5
:1009F0001F910F91FF90EF9008955196ED91FC910A
:100A0000529750968C915097982F90950FB75E966D
:100A10002C915E97122F127021FD6095F894208121
:100A2000112319F1282B2083E7012197F1F728E002
:100A3000462F50E0308160FF1AC0382B3083E70129
:100A40002197F1F7BA0175956795215089F7112320
:100A500081F08081892380830FBF5C968D919C916A
:100A60000197F1F781E090E0C1CF2923DCCF392352
:100A7000E5CF9081892BEFCF2091050230910602BE
:100A80002817390771F4809104022091030290E045
:100A9000805C9F4F821B910960E470E00E94E50A30
:100AA000089590E080E008952091050230910602BB
:100AB00028173907B9F4909103028091040298171E
:100AC00089F0E0910302F0E0EA57FE4F8081209127
:100AD000030230E02F5F3F4F2F7333272093030231
:100AE00090E008958FEF9FEF089590E080E00895E3
:100AF0001F920F920FB60F9211242F933F934F9393
:100B00005F936F937F938F939F93AF93BF93EF9375
:100B1000FF9380E192E00E940302FF91EF91BF9169
:100B2000AF919F918F917F916F915F914F913F9185
:100B30002F910F900FBE0F901F9018951F920F923C
:100B40000FB60F9211242F938F939F93EF93FF93E0
:100B5000E0912002F09121028081E0912602F09143
:100B6000270282FD1BC09081809129028F5F8F73C5
:100B700020912A02821741F0E0912902F0E0E05F23
:100B8000FD4F958F80932902FF91EF919F918F9157
:100B90002F910F900FBE0F901F9018958081F4CF6A
:100BA0001F920F920FB60F9211242F933F938F93A2
:100BB0009F93AF93BF938091FB019091FC01A09113
:100BC000FD01B091FE013091FA0123E0230F2D3792
:100BD00058F50196A11DB11D2093FA018093FB01E8
:100BE0009093FC01A093FD01B093FE018091FF0161
:100BF00090910002A0910102B09102020196A11D04
:100C0000B11D8093FF0190930002A0930102B09365
:100C10000202BF91AF919F918F913F912F910F90C1
:100C20000FBE0F901F90189526E8230F0296A11D66
:100C3000B11DD2CF1F920F920FB60F9211242F9396
:100C40003F934F935F936F937F938F939F93AF9354
:100C5000BF93EF93FF93E0910201F0910301099597
:100C6000FF91EF91BF91AF919F918F917F916F9184
:100C70005F914F913F912F910F900FBE0F901F905A
:100C800018951F920F920FB60F9211242F933F9336
:100C90004F935F936F937F938F939F93AF93BF9384
:100CA000EF93FF93E0910001F09101010995FF910D
:100CB000EF91BF91AF919F918F917F916F915F91D4
:100CC0004F913F912F910F900FBE0F901F9018954D
:100CD0001F920F920FB60F9211242F933F934F93B1
:100CE0005F936F937F938F939F93AF93BF93EF9394
:100CF000FF93E0910502F0910602309749F0A68536
:100D0000B7858585968D91FF14C09C918923A1F4A8
:100D1000FF91EF91BF91AF919F918F917F916F91D3
:100D20005F914F913F912F910F900FBE0F901F90A9
:100D300018959C91892361F7A389B4899C91858931
:100D4000809589238C93868997890197F1F7608D27
:100D5000718DA685B785558538E020E0CB010197D8
:100D6000F1F7822F90E095958795282F4C91452398
:100D700009F02068315091F7868D81FD2095809192
:100D8000040290E001968F7399273091030238177F
:100D900099F0A0910402B0E0AA57BE4F2C93809323
:100DA0000402828D938D0197F1F7A389B4898C9108
:100DB0009589892B8C93ACCF868D8160868FF1CFFE
:100DC000109213021092120288EE93E0A0E0B0E0BD
:100DD0008093140290931502A0931602B093170209
:100DE00089E591E0909311028093100285EC90E0E8
:100DF00090931D0280931C0284EC90E090931F025C
:100E000080931E0280EC90E0909321028093200258
:100E100081EC90E0909323028093220282EC90E098
:100E2000909325028093240286EC90E09093270211
:100E3000809326021092290210922A0210922B020D
:100E400010922C021092CE021092D2021092D10275
:100E50001092D3028DE791E09093CD028093CC0263
:100E6000E8EEF2E01082148213821582369683E057
:100E7000E432F807B9F789E091E090932F0380936B
:100E80002E0384E091E0909331038093300384E05B
:100E90008093320385E0809333038DE091E090935B
:100EA0002D0380932C038AE090E090933503809388
:100EB000340384EF91E090933703809336031092CC
:100EC0003A031092390310922803109229031092CA
:100ED0002A0310922B03109238031092B002109242
:100EE000AF0288EE93E0A0E0B0E08093B10290936F
:100EF000B202A093B302B093B4028BE691E0909358
:100F0000AE028093AD021092C4021092C3021092FE
:100F1000C6021092C5021092C8021092C702109227
:100F2000CA021092C9026091CB026E7F6D7F6093FE
:100F3000CB026695617081E0682784E00E94E70239
:100F400061E084E00E941903EBE4F2E0E491E093B5
:100F5000BD02E7E3F2E0E491F0E0EE0FFF1FE75D92
:100F6000FD4F859194919093BF028093BE0260E003
:100F700082E30E9419038091CB0281FD04C061E0ED
:100F800082E30E94E70282E38093B902E9E7F2E09C
:100F9000E491E093BA02E5E6F2E0E491F0E0EE0FCE
:100FA000FF1FE15EFD4F859194919093BC02809369
:100FB000BB020895789484B5826084BD84B5816055
:100FC00084BD85B5826085BD85B5816085BD809114
:100FD0006E00816080936E0010928100809181008C
:100FE0008260809381008091810081608093810084
:100FF000809180008160809380008091B100846046
:101000008093B1008091B00081608093B0008091A6
:101010007A00846080937A0080917A008260809365
:101020007A0080917A00816080937A0080917A00C2
:10103000806880937A001092C1001092C8021092CA
:10104000C7021092C6021092C5021092C4021092FA
:10105000C3028DE991E09093CA028093C9029091F6
:10106000B902963108F047C02DEB30E03093C4024E
:101070002093C3022BE931E03093C6022093C502CE
:101080002CE231E03093C8022093C702209168001F
:1010900084E0983048F031E09E3008F430E081E0A0
:1010A00001C0880F3A95EAF7822B809368002DE6FD
:1010B00030E0983050F02BE630E09E3030F02CE6F7
:1010C00030E0963110F030E020E03093C102209300
:1010D000C002292F30E0983008F0B8C081E001C08C
:1010E000880F9A95EAF78093C2028091C902909185
:1010F000CA020197F1F78091C7029091C802892B2B
:1011000049F1E0910502F091060222E0ED3AF20782
:1011100009F1309739F0A389B4899C91858980952C
:1011200089238C938091CB028E7F8093CB02109287
:101130000402109203028DEA92E0909306028093DB
:101140000502E091C002F091C10280819091C2023B
:10115000892B8083E0912002F091210292E090831C
:10116000E0911C02F0911D021082E0911E02F091AC
:101170001F028AE1808310922802E0912402F091FC
:10118000250286E08083E0912202F0912302808193
:1011900080618083E0912202F09123028081886047
:1011A0008083E0912202F091230280818068808315
:1011B000E0912202F091230280818F7D80839093C1
:1011C0000B0286E890E090930A028093090262E0A5
:1011D00083E00E94190362E082E00E9419031092EA
:1011E00008021092070282E694E090930301809334
:1011F000020180916900837F886080936900E99A89
:10120000812C912C5401839440E0642E40E0742E94
:1012100060910D0290910C029111B7C1611123C030
:101220000E94E70380930C02882329F1682F109213
:101230000C0267FF50C0962F9F73906890930D0229
:101240006295669566956370606C0FC09E3040F441
:101250002850310981E001C0880F2A95EAF743CF71
:101260002E503109F7CF10920D02662321F06D3018
:10127000B9F50E94AA0151E0509338030E947E0301
:10128000009128031091290320912A0330912B0308
:10129000AB01BC01401B510B620B730B80913403FB
:1012A00090913503B0E0A0E084179507A607B70733
:1012B00008F061C1C0E080913203C817D0F5E09119
:1012C0002E03F0912F03EC0FF11D62E080810E944C
:1012D0001903CF5FF0CF6111C8CF6FEF7FEFC5CF9C
:1012E00097EE960F933038F298EF960F943018F2ED
:1012F0006F3709F26A3391F080E192E00E94250293
:1013000080910E0290910F02039709F0B4CF0E94D2
:10131000AA0110920F0210920E02ADCF80910E0220
:1013200090910F02019690930F0280930E026AE350
:10133000E3CF512C80913303581608F05FC0052D80
:1013400010E0E0913003F0913103E00FF11F61E014
:1013500080810E941903E0913003F0913103E00F86
:10136000F11F60E080810E94E702D501C401052CD5
:1013700004C0880F991FAA1FBB1F0A94D2F76C01E3
:101380007C01E094F094412C809132034816F8F4EB
:10139000C42DD0E0E0912E03F0912F03EC0FFD1F40
:1013A00080810E94BB022496CC0FDD1FC453DD4F09
:1013B000892B41F4888199818C299D29998388837F
:1013C0004394E2CF888199818E219F21F7CFE091CC
:1013D0003003F0913103E00FF11F61E080810E9442
:1013E000E7028091300390913103080F191F60E0EC
:1013F000F80180810E94190353949CCF0CEC12E0F9
:10140000F801878D90A1892B31F4148E8FEF9FEF17
:10141000968F858F11A2369693E0E830F90789F709
:10142000F12C80913203F81608F050C0E12CCF2D3A
:10143000D0E0CC0FDD1FCC52DD4F20913303E216FC
:1014400008F042C0688179810E2C02C076956795BC
:101450000A94E2F7F29E900111242E0D311DECEC5E
:10146000F2E080E0458D568D2417350709F48BC0D6
:101470008F5F36968A30B1F760FF24C0ECECF2E063
:1014800090E080E0448D411118C0E0912C03F09170
:101490002D03E20FF31F408156E0589FF001599F42
:1014A000F00D1124E453FD4F448F368F258F10A289
:1014B000178E61E00E948A0305C0019636968A3035
:1014C000910501F7E394B9CFF394ABCFC0E0F801F5
:1014D00081A18111C82F0A5F1F4FF3E008301F0759
:1014E000B1F70E947E0360932803709329038093D1
:1014F0002A0390932B03CC23F1F18091ED028823F2
:10150000D1F18091EB029091EC020197A1F56091ED
:10151000E802611133C00E9459031B012C018AE0CB
:10152000C82ED12CE12CF12C0E94590362197309A9
:1015300084099509683E734081059105A8F321E06F
:10154000C21AD108E108F10858EE250E53E0351E05
:10155000411C511CC114D104E104F10429F76114A8
:10156000710409F455CE0E94EF01882309F450CE8E
:101570000E9400004DCE10923803CDCF8DEA92E04C
:101580000E94E004C8CF617095CF61116CCE692FC5
:101590004ECE8BE691E09093AE028093AD028091A7
:1015A0000502909106028D5A924071F4E091C002BA
:1015B000F091C10290818091C2028095892380833D
:1015C0001092060210920502089597FB072E16F45A
:1015D000009407D077FD09D00E94F90A07FC05D0D6
:1015E0003EF4909581959F4F0895709561957F4F3A
:1015F0000895AA1BBB1B51E107C0AA1FBB1FA6175A
:10160000B70710F0A61BB70B881F991F5A95A9F7AB
:1016100080959095BC01CD010895EE0FFF1F0590B8
:10162000F491E02D099411E0CFE2D1E004C0FE0175
:101630000E940D0B2196C033D107C9F7F894FFCF54
:10164000E603E6030C0B0A09080E0F1011373839B0
:101650002643343536585E3132334676302E514F7C
:101660002F2F00000000000000000000000000001C
:10167000000D00000000000000000000000000005D
:1016800000000800000000007F0A00150B000000A9
:10169000001A0000190000000025027D01B201724D
:1016A00002E301C101D50100000000E0047D0175E5
:1016B00005DF043C055405C7040000000055031570
:0616C00003E4020D0A0024
:00000001FF
